:0A00000002141FE4FEFF227F00221D
:10000B0002062841050800010B0043040A0000000A
:10001B005904EF0000000000000000000000000089
:10002B000000000000000000000000004104D500AB
:01003B0000C4
:10004300021715E709F608DFFA8046E709F208DF29
:10005300FA803E88828C83E709F0A3DFFA8032E3DB
:1000630009F608DFFA8078E309F208DFFA8070887E
:10007300828C83E309F0A3DFFA806489828A83E0B8
:10008300A3F608DFFA805889828A83E0A3F208DFA7
:10009300FA804C80D280FA80C680D4806980F28056
:1000A30033801080A680EA809A80A880DA80E2807C
:1000B300CA803389828A83ECFAE493A3C8C582C8D1
:1000C300CCC583CCF0A3C8C582C8CCC583CCDFE93B
:1000D300DEE7800D89828A83E493A3F608DFF9ECD7
:1000E300FAA9F0EDFB2289828A83ECFAE0A3C8C562
:1000F30082C8CCC583CCF0A3C8C582C8CCC583CC89
:10010300DFEADEE880DB89828A83E493A3F208DFF7
:10011300F980CC88F0EF60010E4E60C388F0ED24C7
:1001230002B4040050B9F582EB2402B4040050AFCA
:10013300232345822390009673BB010689828A8319
:10014300E0225002E722BBFE02E32289828A83E493
:100153009322BB010CE58229F582E5833AF583E01E
:10016300225006E92582F8E622BBFE06E92582F83D
:10017300E222E58229F582E5833AF583E49322BB03
:10018300010689828A83F0225002F722BBFE01F323
:1001930022F8BB010DE58229F582E5833AF583E870
:1001A300F0225006E92582C8F622BBFE05E9258226
:1001B300C8F222C5F0F8A3E028F0C5F0F8E58215EF
:1001C3008270021583E038F022A3F8E0C5F025F031
:1001D300F0E582158270021583E0C838F0E822BB8F
:1001E300010A89828A83E0F5F0A3E022500687F0B2
:1001F30009E71922BBFE07E3F5F009E31922898217
:100203008A83E493F5F074019322BB0110E58229FC
:10021300F582E5833AF583E0F5F0A3E0225009E99E
:100223002582F886F008E622BBFE0AE92582F8E279
:10023300F5F008E222E5832AF583E993F5F0A3E9D3
:100243009322BB010DC58229C582C5833AC58302AA
:1002530001B65011C58229F808E5F026F618F5F025
:10026300E58236F622BBFE11C58229F808E225F0A5
:10027300F5F0F218E23582F222F8E58229F582E5FB
:10028300832AF58374019325F0F5F0E4933822BBB8
:10029300010A89828A83F0E5F0A3F0225006F70968
:1002A300A7F01922BBFE06F3E5F009F31922F8BB08
:1002B3000111E58229F582E5833AF583E8F0E5F05B
:1002C300A3F0225009E92582C8F608A6F022BBFE56
:1002D30009E92582C8F2E5F008F222E88FF0A4CC00
:1002E3008BF0A42CFCE98EF0A42CFC8AF0EDA42C5A
:1002F300FCEA8EF0A4CDA8F08BF0A42DCC3825F029
:10030300FDE98FF0A42CCD35F0FCEB8EF0A4FEA913
:10031300F0EB8FF0A4CFC5F02ECD39FEE43CFCEA20
:10032300A42DCE35F0FDE43CFC2275F00875820067
:10033300EF2FFFEE33FECD33CDCC33CCC58233C5A7
:10034300829BED9AEC99E58298400CF582EE9BFE38
:10035300ED9AFDEC99FC0FD5F0D6E4CEFBE4CDFA93
:10036300E4CCF9A88222B800C1B90059BA002DEC37
:100373008BF084CFCECDFCE5F0CBF97818EF2FFFCF
:10038300EE33FEED33FDEC33FCEB33FB10D7039977
:100393004004EB99FB0FD8E5E4F9FA227818EF2F24
:1003A300FFEE33FEED33FDEC33FCC933C910D70543
:1003B3009BE99A4007EC9BFCE99AF90FD8E0E4C962
:1003C300FAE4CCFB2275F010EF2FFFEE33FEED3392
:1003D300FDCC33CCC833C810D7079BEC9AE89940BF
:1003E3000AED9BFDEC9AFCE899F80FD5F0DAE4CD21
:1003F300FBE4CCFAE4C8F922E8600FECC313FCED8C
:1004030013FDEE13FEEF13FFD8F122BB010DE582BE
:1004130029F582E5833AF5830205BE5007E9258273
:10042300F80205B2BBFE07E92582F80205CAE58298
:1004330029F582E5833AF5830205D6ECF0A3EDF0C6
:10044300A3EEF0A3EFF022A8828583F0D083D082BD
:10045300120461120461120461120461E473E493EF
:10046300A3C583C5F0C583C8C582C8F0A3C583C52A
:10047300F0C583C8C582C822A42582F582E5F0357C
:1004830083F58322BB010789828A830205F850051D
:10049300E9F80205E6BBFE05E9F802060A89828A45
:1004A3008302061CBB011A89828A83D0F0D0E0F84C
:1004B300D0E0F9D0E0FAD0E0FBE8C0E0C0F00206FB
:1004C300015016E9F8D083D082D0E0F9D0E0FAD019
:1004D300E0FBC082C0830205EFBBFE16E9F8D083C0
:1004E300D082D0E0F9D0E0FAD0E0FBC082C0830232
:1004F300061322BB010DE58229F582E5833AF583D4
:100503000205F85007E92582F80205E6BBFE07E974
:100513002582F802060AE58229F582E5833AF58306
:1005230002061CBB0120E58229F582E5833AF583A7
:10053300D0F0D0E0F8D0E0F9D0E0FAD0E0FBE8C0AA
:10054300E0C0F00206015018E92582F8D083D0827A
:10055300D0E0F9D0E0FAD0E0FBC082C0830205EF1F
:10056300BBFE18E92582F8D083D082D0E0F9D0E031
:10057300FAD0E0FBC082C083020613228A838982F9
:10058300E473EC8EF0A4CCC5F0CCCDF8EFA4CEC5CB
:10059300F02DFDE43CFCE8A42EC8C5F03DFDE43C91
:1005A300FCEFA4FFE5F028FEE43DFDE43CFC22E67D
:1005B300FC08E6FD08E6FE08E6FF22E0FCA3E0FDFA
:1005C300A3E0FEA3E0FF22E2FC08E2FD08E2FE084E
:1005D300E2FF22E493FC740193FD740293FE74031F
:1005E30093FF22E6FB08E6FA08E6F922EBF608EAAF
:1005F300F608E9F622E0FBA3E0FAA3E0F922EBF028
:10060300A3EAF0A3E9F022E2FB08E2FA08E2F92206
:10061300EBF208EAF208E9F222E493FB740193FA9D
:10062300740293F922C0E0C0F0C083C082C0D075C9
:10063300D000C000C001C002C003C004C005C00692
:10064300C007E4FFFE9004C8F0C200F9A3C9F0A3F9
:10065300F0A3E9F0050BC2AF90040DE0FBA3E0FAB1
:10066300A3E0F912048790000812020D45F07015FB
:1006730090000612020DFD900008E5F08DF01202C5
:10068300B1D200800A90000874FFF5F01202459081
:100693000447E070030207597F00EFC39408748096
:1006A30094804003020759EF75F003A4242CF582CC
:1006B300E43404F583E0FBA3E0FAA3E04A4B7003C0
:1006C300020755EF75F003A4242CF582E43404F5F6
:1006D30083E0FBA3E0FAA3E0F912048790000B7414
:1006E300FFF5F012024545F07068EF75F003A4249E
:1006F3002CF582E43404F583E0FBA3E0FAA3E0F9EC
:1007030012048790000AE4120194EF75F003A42405
:100713002CF582E43404F583E0FBA3E0FAA3E0F9CB
:1007230090042BE0FD04F0ED75F003A42410F58292
:10073300E43404F583EBF0A3EAF0A3E9F0EF75F0FA
:1007430003A4242CF582E43404F583E4F0A3F0A39A
:10075300F00E0F02069D900447E0C39EF0AF06D350
:10076300EF94007480948050033000597B017A0425
:1007730079C81215599004C9EBF0A3EAF0A3E9F084
:1007830090040DE0FBA3E0FAA3E0F91204879000C4
:1007930005120155FF9004C9E0FBA3E0FAA3E0F9B9
:1007A300120487900005120155D39F401890040D41
:1007B300E0FBA3E0FAA3E0F912048790000AE41235
:1007C3000194120B25D50B02D2AFD007D006D0056A
:1007D300D004D003D002D001D000D0D0D082D083B7
:1007E300D0F0D0E0329004ADEBF0A3EAF0A3E9F04F
:1007F300E49004C1F09004B0E0FBA3E0FAA3E0F9B5
:10080300C003C002C0019004ADE0FBA3E0FAA3E083
:10081300F91204A79004ADE0FBA3E0FAA3E0F9907A
:1008230004B3E0FDE49004C6F012111BEF60037FF4
:1008330001229004B4E0FBA3E0FAA3E0F9C003C0F3
:1008430002C0019004B0E0FBA3E0FAA3E0F990003A
:10085300021205269004BBA3E0FAA3E0AE02FF90C8
:1008630004B0E0FBA3E0FAA3E0F990000DEE8FF0F3
:100873001202B19004BEE090000F1201949004BAEA
:10088300E09000051201949004BFE0FEA3E0FF9006
:100893000006EE8FF01202B1900008EE8FF0120204
:1008A300B19004BBE0FBA3E475F0011201CCA9F005
:1008B300FA740F1201829004B4A3A3E0FF9004BB67
:1008C300E0FBA3E475F0011201CCA9F0FAEF1201E9
:1008D300829004B4A3E0FAEAFF9004BBE0FBA3E038
:1008E300FAA3E0F9EF120182E49004C1F09004C18D
:1008F300E0C3940B74809480501C9004BBE0FBA372
:10090300E475F0011201B6A9F0FAE4120182900431
:10091300C1E004F080D79004B7A3A3E0FF9004BB29
:10092300E0FBA3E475F0011201CCA9F0FAEF120188
:10093300829004B7E0FBA3E0FAA3E0F9FFAE02ADB7
:10094300037C0078081203FB9004BBE0FBA3E4756F
:10095300F0011201CCA9F0FAEF1201829004B7E082
:10096300FBA3E0FAA3E0F9FFAE02AD037C0078102D
:100973001203FB9004BBE0FBA3E0FAA3E0F9EF1240
:1009830001827F0022900499EBF0A3EAF0A3E9F03F
:10099300A3EDF0E49004A9F0900487E0D3940874E5
:1009A3008094804003020B1E050BC2AFE49004A9A0
:1009B300F090042BE0FF9004A9E0FEC39F50409009
:1009C300042BE09401748094804034EE75F003A40A
:1009D3002410F582E43404F583E0FBA3E0FAA3E0FA
:1009E300F9120487900005120155FF9004A3E0B5A6
:1009F30007057F0412177B9004A9E004F080B290EE
:100A03000499E0FBA3E0FAA3E0F97D107C00121146
:100A1300E99004AAEBF0A3EAF0A3E9F09004AAE0BA
:100A2300FBA3E0FAA3E04A4B7003020B199004AA5C
:100A3300A3A3E0F99004B0EBF0A3EAF0A3E9F090EC
:100A4300049CE09004B3F090049DE0F9A3E0FAA3C2
:100A5300E09004B4C9F0A3EAF0A3E9F09004A0E0A5
:100A6300F9A3E0FAA3E09004B7C9F0A3EAF0A3E97D
:100A7300F09004A3E09004BAF09004A4E0FEA3E095
:100A8300AA06F99004BB7401F0A3EAF0A3E9F0907D
:100A930004A6E09004BEF09004A7E0FFA3E0900456
:100AA300BFCFF0A3EFF0900499E0FBA3E0FAA3E03B
:100AB300F91207E89004AAE0FBA3E0FAA3E0F99097
:100AC300000AE4120194900499E0FBA3E0FAA3E086
:100AD300F990042BE0FF04F0EF75F003A42410F564
:100AE30082E43404F583EBF0A3EAF0A3E9F0900485
:100AF3000DE0FBA3E0FAA3E04A4B6003120B259041
:100B03000487E004F0D50B02D2AF9004AAE0FBA364
:100B1300E0FAA3E0F922D50B02D2AF7B007A007989
:100B23000022050BC2AF90040DE0FBA3E0FAA3E0A3
:100B33004A4B7003020BCAC0E0C0F0C083C082C03E
:100B4300D075D000C000C004C005C006C007C001F6
:100B5300C002C003C08190040DE0FBA3E0FAA3E050
:100B6300F912048790000D12020D85F008F5097F34
:100B730022750A22C3E5819422147821F6E68509B9
:100B830082850883F090040DE0FBA3E0FAA3E0F96B
:100B930012048790000F120155FF8509828508838F
:100BA300E0D39F40057F0212177B7821E61660177A
:100BB300050AA80AE6FF0509E50970020508F5829A
:100BC300850883EFF080E390040DE0FBA3E0FAA334
:100BD300E0F91212B27B017A0479C7121559900415
:100BE3000DEBF0A3EAF0A3E9F012048790000A7476
:100BF3000112019490042BE014F075F003A4241067
:100C0300F582E43404F583E0FBA3E0FAA3E0F99072
:100C130004C7E075F003A42410F582E43404F583DB
:100C2300EBF0A3EAF0A3E9F090042BE075F003A442
:100C33002410F582E43404F583E4F0A3F0A3F090E8
:100C4300040DE0FBA3E0FAA3E0F912048790000D82
:100C530012020D85F008F509750A22F582850883CD
:100C6300E07821F67821E61660150509E50970029A
:100C73000508F582850883E0050AA80AF680E5855C
:100C83000A81D003D002D001D007D006D005D0040A
:100C9300D000D0D0D082D083D0F0D0E0D50B02D218
:100CA300AF229004D57401F090048C74FFF0A37408
:100CB30016F0A374C6F0A37401F0A37404F0A37434
:100CC300D5F0A37401F0A3F0A37404F0A374E5F0CA
:100CD300A37418F0A3E4F0A37464F07B017A04799D
:100CE300D67D0112136D9004D6EBF0A3EAF0A3E9CD
:100CF300F090048C74FFF0A37417F0A37486F0A330
:100D0300E4F0A3F0A3F0A37402F07B01A314F0A317
:100D13007404F0A374E7F0A37418F0A3E4F0A374CD
:100D230064F07A0479D97D0212136D9004D9EBF043
:100D3300A3EAF0A3E9F090048C74FFF0A37417F016
:100D4300A37491F0A3E4F0A3F0A3F0A37403F0A3BE
:100D53007401F0A37404F0A374E9F0A37418F0A36E
:100D6300E4F0A37464F07B017A0479DC7D0312134D
:100D73006D9004DCEBF0A3EAF0A3E9F090048C742B
:100D8300FFF0A37417F0A3749CF0A3E4F0A3F0A303
:100D9300F0A37404F0A37401F0A37404F0A374EB40
:100DA300F0A37418F0A3E4F0A37464F07B017A0455
:100DB30079DF7D0412136D9004DFEBF0A3EAF0A357
:100DC300E9F090048C74FFF0A37417F0A374A7F0F8
:100DD300A3E4F0A3F0A3F0A37405F0A37401F0A3BC
:100DE3007404F0A374EDF0A37418F0A3E4F0A374F7
:100DF30064F07B017A0479E27D0512136D9004E2BD
:100E0300EBF0A3EAF0A3E9F022900490EBF0A3EA5D
:100E1300F0A3E9F01214BC90049312043EC28C9028
:100E23000490E0FBA3E0FAA3E0F99000011201555E
:100E330025E025E0FFE58954FB4FF5899000021278
:100E43000155FFE58954FC4FF589900003120155C4
:100E53007F0070027F01EFC43333335480FFE58E8C
:100E6300547F4FF58E900490E0FBA3E0FAA3E0F9E2
:100E730090000512020DAEF0FBAA06E4F9F87F40DC
:100E83007E427D0FFC120369C004C005C006C00783
:100E9300E58E7F0020E7027F01EF75F00BA42401AC
:100EA300FFE435F0FE3395E0FDFCD003D002D00122
:100EB300D0001202DEA804A905AA06AB079004938A
:100EC300E0FCA3E0FDA3E0FEA3E0FF120369C3E49B
:100ED3009FFFE49EFE900490E0FBA3E0FAA3E0F9F9
:100EE300900005EE8FF01202B190000212015564DA
:100EF300029004907014E0FBA3E0FAA3E0F99000E1
:100F03000512020DF58AF58C8015E0FBA3E0FAA328
:100F1300E0F990000512020DAEF0F58AEEF58C9023
:100F23000490E0FBA3E0FAA3E0F99000041201555A
:100F3300FFE58F54FE4FF58F90000712015524FFF4
:100F4300928C7F002243BA8012013CFF700302108F
:100F53000F90FE02E054FEF090FE04E0547EF09009
:100F6300FE03E0541EF090FE06E0543EF0EF24FE34
:100F7300602E14601C14600E2403703190FE00E494
:100F8300F090FE02802390FE007401F090FE038037
:100F93000990FE007402F090FE06E044C0F0800D5C
:100FA30090FE007403F090FE04E04480F090FE0293
:100FB300E020E01490FE04E020E00D90FE03E0202A
:100FC300E00690FE06E060E590FE03C083C082E089
:100FD300FF900007120155C454F0FEEF4ED082D0AB
:100FE30083F0900003120155F59D90000112015505
:100FF300F59F900002120155F59E900004120155D1
:10100300FF90FE01700404F08002EFF090FE05C033
:1010130083C082E0FF900005120155FEEF4ED0829F
:10102300D083F090FE05C083C082E0FF90000612DB
:101033000155C43333335480FEEF4ED082D083F056
:1010430053BA7F7F0022E4900488F07B017A04790D
:101053008812155990040DEBF0A3EAF0A3E9F012FE
:10106300048790000A740112019490042BE014F099
:1010730075F003A42410F582E43404F583E0FBA3A4
:10108300E0FAA3E0F9900488E075F003A42410F5D6
:1010930082E43404F583EBF0A3EAF0A3E9F09004CF
:1010A3002BE075F003A42410F582E43404F583E403
:1010B300F0A3F0A3F090040DE0FBA3E0FAA3E0F9A2
:1010C30012048790000D12020D85F008F509750AC8
:1010D30022F582850883E07821F67821E6166015EB
:1010E3000509E50970020508F582850883E0050A0C
:1010F300A80AF680E5850A81D003D002D001D00783
:10110300D006D005D004D000D0D0D082D083D0F088
:10111300D0E0D50B02D2AF229004C2EBF0A3EAF0E9
:10112300A3E9F0E4FF050BC2AF9004C6E0FE75F03F
:1011330019A42407F582E43405F583E0FCEFC39C8E
:10114300502CEE75F019A424EFF582E43404F583F2
:1011530075F003EF12047BE0FBA3E0FAA3E0F912BE
:10116300048712013CB505037F01220F80BBAF0545
:101173009004C2E0FBA3E0FAA3E0F9120487EF12A4
:1011830001829004C6E0FF9004C2E0FBA3E0FAA34F
:10119300E0F9120487900001EF1201949004C2E079
:1011A300FBA3E0FAA3E0F9EF75F019A424EFF582AD
:1011B300E43404F583C083C082EF75F019A42407D7
:1011C300F582E43405F583E0FF04F0D082D0837523
:1011D300F003EF12047BEBF0A3EAF0A3E9F0D50BE5
:1011E30002D2AF7F00229004ADEBF0A3EAF0A3E9B3
:1011F300F09004ADE0FBA3E0FAA3E0F9050BC2AF66
:10120300C3EC940440030212A690000474FF75F02B
:10121300F81201B69004ADE0FBA3E0FAA3E0F9C035
:1012230003C002C001900003E0FBA3E0FAA3E0F9CE
:101233001204A7900000E0FBA3E0FAA3E0F9C003C7
:10124300C002C001A3E0FBA3E0FAA3E0F99000030E
:10125300120526900003E0FBA3E0FAA3E0F9900057
:1012630006EC8DF01202B1900000E0FBA3E0FAA3BC
:10127300E0F9900001EC8DF01201B6ED2408FFE4D3
:101283003CFEC3900009E09FF0900008E09EF090C0
:101293000007E004F07006900006E004F0D50B02AE
:1012A300D2AF22D50B02D2AF7B007A007900229015
:1012B30004CFEBF0A3EAF0A3E9F0E4FF1204879074
:1012C300000A12015524FE602A146075240360038A
:1012D30002136C9004CFE0FBA3E0FAA3E0F99004BF
:1012E3002BE0FF04F0EF75F003A42410F582E4343F
:1012F30004806CEFC3940974809480506CEF75F094
:1013030003A4242CF582E43404F583E0FBA3E0FA80
:10131300A3E04A4B70289004CFE0FBA3E0FAA3E0DC
:10132300F9EF75F003A4242CF582E43404F583EB80
:10133300F0A3EAF0A3E9F0900447E004F0220F8061
:10134300B29004CFE0FBA3E0FAA3E0F9900463E0DA
:10135300FF04F0EF75F003A42448F582E43404F5A8
:1013630083EBF0A3EAF0A3E9F022900488EBF0A367
:10137300EAF0A3E9F0A3EDF0900493E0FBA3E0FA15
:10138300A3E0F91201E2AAF0F97B01900496E0FDD3
:101393007C001211E9AE02AF01900493E0FBA3E0DD
:1013A300FAA3E0F9EE8FF012029290048BE0FDA312
:1013B300E0F9A3E0FAA3E090049DC9F0A3EAF0A347
:1013C300E9F090048FE0F9A3E0FAA3E09004A0C948
:1013D300F0A3EAF0A3E9F0900492E09004A3F09064
:1013E3000493E0FBA3E0FAA3E0F91201E2FF900407
:1013F300A4E5F0F0A3EFF0900496E09004A6F0903B
:101403000497E0FFA3E09004A7CFF0A3EFF09004CC
:1014130088E0FBA3E0FAA3E0F902098878EDE4F69B
:10142300D8FD9000007FFF7E1DE4F0A3DFFCDEFA11
:101433007581411215D4021477020003E493A3F8D3
:10144300E493A34003F68001F208DFF48029E493D8
:10145300A3F85407240CC8C333C4540F4420C883CF
:101463004004F456800146F6DFE4800B01020408D1
:101473001020408090000EE47E019360BCA3FF54D3
:101483003F30E509541FFEE493A360010ECF54C01F
:1014930025E060A840B8E493A3FAE493A3F8E493A7
:1014A300A3C8C582C8CAC583CAF0A3C8C582C8CAAF
:1014B300C583CADFE9DEE780BEE59D603178FAE6E1
:1014C300FBAF9FC3EF9BFFE49400FEE49400FDE4B5
:1014D3009400FC7BE07A28790178001202DEE42F85
:1014E300FFEE3451FEED3425FDEC3402802E78FB03
:1014F300E6FBAF9FC3EF9BFFE49400FEE49400FD83
:10150300E49400FCE47B807ABBF9F81202DEE42F5A
:10151300FFEE3436FEED346EFDEC3401FC9004979F
:1015230012043E900497E0FCA3E0FDA3E0FEA3E0D9
:10153300FFC00790FE01E0FBE4FAF9F8D0071203BD
:101543006990049712043E900497E0FCA3E0FDA386
:10155300E0FEA3E0FF229004CCEBF0A3EAF0A3E9C2
:10156300F0E4FFFE12018290042BE0FDEFC39D50D7
:101573003CEF75F003A42410F582E43404F583E012
:10158300FBA3E0FAA3E0F9120487900005120155CA
:10159300D39E4016900005120155FE9004CCE0FB4B
:1015A300A3E0FAA3E0F9EF1201820F80BA9004CC12
:1015B300E0FBA3E0FAA3E0F912013C75F003A424D5
:1015C30010F582E43404F583E0FBA3E0FAA3E0F929
:1015D30022E4F50B900509F01217B2050BC2AF1206
:1015E300169B12000790049D74FFF0A37417F0A3D9
:1015F3007459F0A3E4F0A3F0A3F0A3F07E047F6793
:10160300A37404F0A37467F0A37420F074FFA3F031
:10161300A3F07B017A047964E4FD120988900464E1
:10162300EBF0A3EAF0A3E9F0120CA5121049E4FED3
:10163300FF2278887C047D017BFF7A1779C37E00C3
:101643007F08120116E490048AF0A304F090048D3D
:101653007403F0A374E8F0A37401F0FB7A047988AF
:10166300120E0C7D017F03021739050BC2AF9004E4
:101673000DE0FBA3E0FAA3E0F912048790000BEE60
:101683008FF01202B190000A7402120194D50B027A
:10169300D2AF120B257F0022E4900006F0A3F0A343
:1016A3007404F0A3E4F07B0190000004F0A3740041
:1016B300F0A3740AF0A3EBF0A37404F0A3740AF08C
:1016C3007F00229004D2EBF0A3EAF0A3E9F09004A8
:1016D300D2E0FBA3E0FAA3E0F912013C640170023B
:1016E300B2A17F0A7E0012166D80E378887C047DA8
:1016F300017BFF7A1779BB7E007F08120116E49005
:101703000488F090048DF0A304F0FB7A0479880236
:101713000F48C0E0C083C082E59A30E003539AFECD
:10172300E59A30E10A539AFD900508E054FDF0D0A4
:1017330082D083D0E032ED24FF92A9EF5402FEE57C
:10174300B754FD4EF5B7EF540125E0FFE5B854FD5E
:101753004FF5B87F002290040AE0FBA3E0FAA3E070
:10176300F9EA494B60F012057F80EB759500759699
:10177300FF7595007596FF22050BC2AF900509EF23
:10178300F080FEB2A27F0A7E0012166D80F5B2A32E
:101793007F0A7E0012166D80F5B2A47F0A7E0012C6
:1017A300166D80F5B2A57F0A7E0012166D80F512C4
:1017B30016EE12176E02163500000000000000003E
:1017C3000000000000000000000000000000000016
:0417D3000000000012
:00000001FF
